{
  "contractName": "MessageAuction",
  "abi": [
    {
      "inputs": [],
      "name": "ReentrancyGuardReentrantCall",
      "type": "error"
    },
    {
      "anonymous": false,
      "inputs": [
        {
          "indexed": true,
          "internalType": "address",
          "name": "bidder",
          "type": "address"
        },
        {
          "indexed": false,
          "internalType": "uint256",
          "name": "bid",
          "type": "uint256"
        },
        {
          "indexed": false,
          "internalType": "string",
          "name": "message",
          "type": "string"
        }
      ],
      "name": "NewBid",
      "type": "event"
    },
    {
      "anonymous": false,
      "inputs": [
        {
          "indexed": true,
          "internalType": "address",
          "name": "user",
          "type": "address"
        },
        {
          "indexed": false,
          "internalType": "uint256",
          "name": "amount",
          "type": "uint256"
        }
      ],
      "name": "Withdrawal",
      "type": "event"
    },
    {
      "stateMutability": "payable",
      "type": "fallback"
    },
    {
      "inputs": [],
      "name": "MIN_INCREMENT",
      "outputs": [
        {
          "internalType": "uint256",
          "name": "",
          "type": "uint256"
        }
      ],
      "stateMutability": "view",
      "type": "function"
    },
    {
      "inputs": [],
      "name": "accRewardPerShare",
      "outputs": [
        {
          "internalType": "uint256",
          "name": "",
          "type": "uint256"
        }
      ],
      "stateMutability": "view",
      "type": "function"
    },
    {
      "inputs": [],
      "name": "currentBid",
      "outputs": [
        {
          "internalType": "uint256",
          "name": "",
          "type": "uint256"
        }
      ],
      "stateMutability": "view",
      "type": "function"
    },
    {
      "inputs": [],
      "name": "currentBidder",
      "outputs": [
        {
          "internalType": "address",
          "name": "",
          "type": "address"
        }
      ],
      "stateMutability": "view",
      "type": "function"
    },
    {
      "inputs": [],
      "name": "currentMessage",
      "outputs": [
        {
          "internalType": "string",
          "name": "",
          "type": "string"
        }
      ],
      "stateMutability": "view",
      "type": "function"
    },
    {
      "inputs": [
        {
          "internalType": "address",
          "name": "",
          "type": "address"
        }
      ],
      "name": "hasParticipated",
      "outputs": [
        {
          "internalType": "bool",
          "name": "",
          "type": "bool"
        }
      ],
      "stateMutability": "view",
      "type": "function"
    },
    {
      "inputs": [
        {
          "internalType": "uint256",
          "name": "",
          "type": "uint256"
        }
      ],
      "name": "participants",
      "outputs": [
        {
          "internalType": "address",
          "name": "",
          "type": "address"
        }
      ],
      "stateMutability": "view",
      "type": "function"
    },
    {
      "inputs": [
        {
          "internalType": "address",
          "name": "",
          "type": "address"
        }
      ],
      "name": "rewardDebt",
      "outputs": [
        {
          "internalType": "uint256",
          "name": "",
          "type": "uint256"
        }
      ],
      "stateMutability": "view",
      "type": "function"
    },
    {
      "inputs": [],
      "name": "totalParticipants",
      "outputs": [
        {
          "internalType": "uint256",
          "name": "",
          "type": "uint256"
        }
      ],
      "stateMutability": "view",
      "type": "function"
    },
    {
      "stateMutability": "payable",
      "type": "receive"
    },
    {
      "inputs": [
        {
          "internalType": "string",
          "name": "message",
          "type": "string"
        }
      ],
      "name": "placeBid",
      "outputs": [],
      "stateMutability": "payable",
      "type": "function"
    },
    {
      "inputs": [],
      "name": "withdraw",
      "outputs": [],
      "stateMutability": "nonpayable",
      "type": "function"
    },
    {
      "inputs": [],
      "name": "getParticipants",
      "outputs": [
        {
          "internalType": "address[]",
          "name": "",
          "type": "address[]"
        }
      ],
      "stateMutability": "view",
      "type": "function"
    },
    {
      "inputs": [
        {
          "internalType": "address",
          "name": "user",
          "type": "address"
        }
      ],
      "name": "pendingReward",
      "outputs": [
        {
          "internalType": "uint256",
          "name": "",
          "type": "uint256"
        }
      ],
      "stateMutability": "view",
      "type": "function"
    }
  ],
  "bytecode": "0x608060405234801561000f575f80fd5b5060015f55610b71806100215f395ff3fe6080604052600436106100bb575f3560e01c8063a26dbf2611610078578063d9203db611610055578063d9203db61461020f578063def1810114610230578063e967e60c14610245578063f40f0f521461025857005b8063a26dbf261461019d578063b4fb3ee3146101b2578063d33db697146101f057005b80629c1cc4146100c457806335c1d349146100f15780633ccfd60b146101285780635873eb9b1461013c5780635aa68ac014610167578063939d62371461018857005b366100c257005b005b3480156100cf575f80fd5b506100de662386f26fc1000081565b6040519081526020015b60405180910390f35b3480156100fc575f80fd5b5061011061010b3660046107ad565b610277565b6040516001600160a01b0390911681526020016100e8565b348015610133575f80fd5b506100c261029f565b348015610147575f80fd5b506100de6101563660046107c4565b60076020525f908152604090205481565b348015610172575f80fd5b5061017b6103a9565b6040516100e891906107f1565b348015610193575f80fd5b506100de60055481565b3480156101a8575f80fd5b506100de60045481565b3480156101bd575f80fd5b506101e06101cc3660046107c4565b60066020525f908152604090205460ff1681565b60405190151581526020016100e8565b3480156101fb575f80fd5b50600354610110906001600160a01b031681565b34801561021a575f80fd5b50610223610409565b6040516100e89190610880565b34801561023b575f80fd5b506100de60015481565b6100c26102533660046108a6565b610495565b348015610263575f80fd5b506100de6102723660046107c4565b610724565b60088181548110610286575f80fd5b5f918252602090912001546001600160a01b0316905081565b6102a7610785565b335f9081526007602052604081205460055464e8d4a51000916102c991610965565b6102d39190610978565b90505f81116103295760405162461bcd60e51b815260206004820152601d60248201527f4e6f207469656e657320666f6e646f732070617261207265746972617200000060448201526064015b60405180910390fd5b600554335f81815260076020526040808220939093559151909183156108fc02918491818181858888f19350505050158015610367573d5f803e3d5ffd5b5060405181815233907f7fcf532c15f0a6db0bd6d0e038bea71d30d808c7d98cb3bf7268a95bf5081b659060200160405180910390a2506103a760015f55565b565b606060088054806020026020016040519081016040528092919081815260200182805480156103ff57602002820191905f5260205f20905b81546001600160a01b031681526001909101906020018083116103e1575b5050505050905090565b6002805461041690610997565b80601f016020809104026020016040519081016040528092919081815260200182805461044290610997565b801561048d5780601f106104645761010080835404028352916020019161048d565b820191905f5260205f20905b81548152906001019060200180831161047057829003601f168201915b505050505081565b61049d610785565b335f9081526006602052604090205460ff16156104fc5760405162461bcd60e51b815260206004820152601d60248201527f59612068617320706172746963697061646f20656e206c612070756a610000006044820152606401610320565b6001545f0361057457662386f26fc1000034101561056f5760405162461bcd60e51b815260206004820152602a60248201527f4c612070756a6120696e696369616c20646562652073657220616c206d656e6f6044820152690e640605c6062408aa8960b31b6064820152608401610320565b6105fe565b662386f26fc1000060015461058991906109cf565b3410156105fe5760405162461bcd60e51b815260206004820152603c60248201527f4c61206e756576612070756a6120646562652073757065726172206c6120616e60448201527f746572696f7220706f7220616c206d656e6f7320302e303120455448000000006064820152608401610320565b600454156106385760045461061864e8d4a51000346109e2565b6106229190610978565b60055f82825461063291906109cf565b90915550505b335f818152600660209081526040808320805460ff1916600190811790915560055460079093529083209190915560088054918201815582527ff3f7a9fe364faab93b216da50a3214154f22a0a2b415b23a84c8169e8b636ee30180546001600160a01b03191690921790915560048054916106b3836109f9565b90915550503460015560026106c88282610a5f565b50600380546001600160a01b031916339081179091556040517f054e9957c988de4f3814f0b1e964d1c7a597e80dcf597fc7ede2aa2584342442906107109034908590610b1b565b60405180910390a261072160015f55565b50565b6001600160a01b0381165f9081526006602052604081205460ff1661074a57505f919050565b6001600160a01b0382165f9081526007602052604090205460055464e8d4a510009161077591610965565b61077f9190610978565b92915050565b60025f54036107a757604051633ee5aeb560e01b815260040160405180910390fd5b60025f55565b5f602082840312156107bd575f80fd5b5035919050565b5f602082840312156107d4575f80fd5b81356001600160a01b03811681146107ea575f80fd5b9392505050565b602080825282518282018190525f9190848201906040850190845b818110156108315783516001600160a01b03168352928401929184019160010161080c565b50909695505050505050565b5f81518084525f5b8181101561086157602081850181015186830182015201610845565b505f602082860101526020601f19601f83011685010191505092915050565b602081525f6107ea602083018461083d565b634e487b7160e01b5f52604160045260245ffd5b5f602082840312156108b6575f80fd5b813567ffffffffffffffff808211156108cd575f80fd5b818401915084601f8301126108e0575f80fd5b8135818111156108f2576108f2610892565b604051601f8201601f19908116603f0116810190838211818310171561091a5761091a610892565b81604052828152876020848701011115610932575f80fd5b826020860160208301375f928101602001929092525095945050505050565b634e487b7160e01b5f52601160045260245ffd5b8181038181111561077f5761077f610951565b5f8261099257634e487b7160e01b5f52601260045260245ffd5b500490565b600181811c908216806109ab57607f821691505b6020821081036109c957634e487b7160e01b5f52602260045260245ffd5b50919050565b8082018082111561077f5761077f610951565b808202811582820484141761077f5761077f610951565b5f60018201610a0a57610a0a610951565b5060010190565b601f821115610a5a575f81815260208120601f850160051c81016020861015610a375750805b601f850160051c820191505b81811015610a5657828155600101610a43565b5050505b505050565b815167ffffffffffffffff811115610a7957610a79610892565b610a8d81610a878454610997565b84610a11565b602080601f831160018114610ac0575f8415610aa95750858301515b5f19600386901b1c1916600185901b178555610a56565b5f85815260208120601f198616915b82811015610aee57888601518255948401946001909101908401610acf565b5085821015610b0b57878501515f19600388901b60f8161c191681555b5050505050600190811b01905550565b828152604060208201525f610b33604083018461083d565b94935050505056fea26469706673582212205c20d67de408a86939c271c58933f5a4bded8c4fb6726e7898f83ddcf47852cc64736f6c63430008140033",
  "immutableReferences": {},
  "source": "// SPDX-License-Identifier: MIT\npragma solidity ^0.8.0;\n\n// Importamos ReentrancyGuard para prevenir reentradas.\nimport \"@openzeppelin/contracts/utils/ReentrancyGuard.sol\";\n\ncontract MessageAuction is ReentrancyGuard {\n    // Variables pblicas del estado de la subasta.\n    uint256 public currentBid;\n    string public currentMessage;\n    address public currentBidder;\n    \n    // Nmero total de participantes (cada uno cuenta como 1 \"share\").\n    uint256 public totalParticipants;\n    \n    // Acumulado de recompensa por share, escalado para precisin.\n    uint256 public accRewardPerShare;\n    uint256 private constant SCALE = 1e12;  // Factor de escala para mantener decimales\n    \n    // Mappings para controlar participacin y calcular recompensas.\n    mapping(address => bool) public hasParticipated;\n    mapping(address => uint256) public rewardDebt;\n    \n    // Mantener un array para transparencia (opcional).\n    address[] public participants;\n    \n    // Incremento mnimo establecido: 0.01 ETH.\n    uint256 public constant MIN_INCREMENT = 0.01 ether;\n    \n    // Eventos para notificar pujas y retiros.\n    event NewBid(address indexed bidder, uint256 bid, string message);\n    event Withdrawal(address indexed user, uint256 amount);\n    \n    /**\n     * @notice Permite realizar una nueva puja con un mensaje.\n     * @dev Cada direccin puede participar solo una vez.\n     *      Si es la primera puja, el monto enviado debe ser al menos MIN_INCREMENT.\n     *      En pujas posteriores, el valor debe ser al menos la puja actual + MIN_INCREMENT.\n     *      La recompensa se acumula globalmente y se asigna a los participantes anteriores mediante el sistema de reward per share.\n     * @param message El mensaje que se mostrar si se convierte en el pujador actual.\n     */\n    function placeBid(string memory message) public payable nonReentrant {\n        require(!hasParticipated[msg.sender], \"Ya has participado en la puja\");\n        \n        if (currentBid == 0) {\n            require(msg.value >= MIN_INCREMENT, \"La puja inicial debe ser al menos 0.01 ETH\");\n        } else {\n            require(msg.value >= currentBid + MIN_INCREMENT, \"La nueva puja debe superar la anterior por al menos 0.01 ETH\");\n        }\n        \n        // Antes de incorporar al nuevo participante, si ya hay participantes, actualizamos el acumulado.\n        // La nueva puja se distribuye entre todos los participantes anteriores.\n        if (totalParticipants > 0) {\n            accRewardPerShare += (msg.value * SCALE) / totalParticipants;\n        }\n        \n        // Registramos al nuevo participante para que no reciba recompensas de pujas previas.\n        hasParticipated[msg.sender] = true;\n        rewardDebt[msg.sender] = accRewardPerShare;\n        participants.push(msg.sender);\n        totalParticipants++;\n        \n        // Actualizamos el estado de la subasta con la nueva puja.\n        currentBid = msg.value;\n        currentMessage = message;\n        currentBidder = msg.sender;\n        \n        emit NewBid(msg.sender, msg.value, message);\n    }\n    \n    /**\n     * @notice Permite retirar los fondos acumulados (ingresos pasivos) por el usuario.\n     * @dev Calcula la recompensa pendiente en base a la diferencia entre el acumulado actual y el debt del usuario.\n     */\n    function withdraw() public nonReentrant {\n        // Cada participante tiene 1 share, por lo que su recompensa pendiente es:\n        // pending = (accRewardPerShare - rewardDebt[msg.sender]) / SCALE\n        uint256 pending = (accRewardPerShare - rewardDebt[msg.sender]) / SCALE;\n        require(pending > 0, \"No tienes fondos para retirar\");\n        \n        // Actualizamos el reward debt para que el usuario no reclame lo mismo dos veces.\n        rewardDebt[msg.sender] = accRewardPerShare;\n        payable(msg.sender).transfer(pending);\n        \n        emit Withdrawal(msg.sender, pending);\n    }\n    \n    // Funciones de consulta adicionales:\n    \n    /**\n     * @notice Devuelve la lista de participantes.\n     */\n    function getParticipants() public view returns (address[] memory) {\n        return participants;\n    }\n    \n    /**\n     * @notice Devuelve el balance (recompensa pendiente) para una direccin.\n     */\n    function pendingReward(address user) public view returns (uint256) {\n        if (!hasParticipated[user]) {\n            return 0;\n        }\n        return (accRewardPerShare - rewardDebt[user]) / SCALE;\n    }\n    \n    // Las funciones receive y fallback permiten recibir Ether.\n    receive() external payable {}\n    fallback() external payable {}\n}",
  "sourcePath": "/Users/nahuelbello/Desktop/Code/Projects/your_message/contracts/message_auction_contract.sol",
  "compiler": {
    "name": "solc",
    "version": "0.8.20+commit.a1b79de6.Emscripten.clang"
  },
  "schemaVersion": "3.4.16",
  "updatedAt": "2025-02-19T10:35:20.739Z",
  "devdoc": {
    "errors": {
      "ReentrancyGuardReentrantCall()": [
        {
          "details": "Unauthorized reentrant call."
        }
      ]
    },
    "kind": "dev",
    "methods": {
      "placeBid(string)": {
        "details": "Cada direccin puede participar solo una vez.      Si es la primera puja, el monto enviado debe ser al menos MIN_INCREMENT.      En pujas posteriores, el valor debe ser al menos la puja actual + MIN_INCREMENT.      La recompensa se acumula globalmente y se asigna a los participantes anteriores mediante el sistema de reward per share.",
        "params": {
          "message": "El mensaje que se mostrar si se convierte en el pujador actual."
        }
      },
      "withdraw()": {
        "details": "Calcula la recompensa pendiente en base a la diferencia entre el acumulado actual y el debt del usuario."
      }
    },
    "version": 1
  },
  "userdoc": {
    "kind": "user",
    "methods": {
      "getParticipants()": {
        "notice": "Devuelve la lista de participantes."
      },
      "pendingReward(address)": {
        "notice": "Devuelve el balance (recompensa pendiente) para una direccin."
      },
      "placeBid(string)": {
        "notice": "Permite realizar una nueva puja con un mensaje."
      },
      "withdraw()": {
        "notice": "Permite retirar los fondos acumulados (ingresos pasivos) por el usuario."
      }
    },
    "version": 1
  }
}